:020000040000FA
:100000000C9469030C9491030C9491030C94910348
:100010000C9491030C9491030C9491030C94910310
:100020000C9491030C9491030C9491030C94910300
:100030000C9491030C9491030C9491030C949103F0
:100040000C9480090C9491030C9491030C949103EB
:100050000C9491030C9491030C9491030C949103D0
:100060000C94CA090C949103AE2000C840817FA172
:10007000A6A83FD300D580D922DA12DB208D14A4A4
:10008000AF00081020000000000000000000000089
:100090000000000000000000F80000000000000068
:1000A000333000000000100C06100C0600000000A9
:1000B000000000000040C07840C0784000043F04C9
:1000C000043F040400007088FC0830000000182081
:1000D000FF211E0000F008F000E018000000211CC5
:1000E000031E211E0000F00888700000001E21235E
:1000F000241927211010160E000000000000000037
:100100000000000000000000E018040200000000F1
:10011000071820400000020418E000000000402002
:100120001807000000404080F080404000020201BB
:100130000F01020200000000F000000000010101B8
:100140001F01010100000000000000000080B070ED
:10015000000000000000000000000000000001019D
:10016000010101010100000000000000000030302A
:10017000000000000000000000806018040060180B
:10018000060100000000E010080810E000000F1059
:100190002020100F00001010F800000000002020A8
:1001A0003F202000000070080808887000003028F8
:1001B00024222130000030088888483000001820B0
:1001C0002020110E000000C02010F80000000704DD
:1001D00024243F240000F80888880808000019211A
:1001E0002020110E0000E0108888180000000F1178
:1001F0002020110E0000380808C838080000000050
:100200003F000000000070880808887000001C2271
:100210002121221C0000E010080810E0000000313D
:100220002222110F00000000C0C0000000000000EA
:10023000303000000000000080000000000000805E
:100240006000000000000080402010080000010253
:100250000408102000404040404040400004040496
:100260000404040400000810204080000000201056
:100270000804020100007048080808F000000000AF
:100280003036010000C030C828E810E00007182709
:100290002423140B000000C038E0000000203C23A1
:1002A000020227382008F8888888700000203F2044
:1002B0002020110E00C03008080808380007182058
:1002C000202010080008F808080810E000203F204F
:1002D0002020100F0008F88888E8081000203F2030
:1002E000202320180008F88888E8081000203F2004
:1002F0000003000000C0300808083800000718207C
:1003000020221E020008F808000008F808203F21FB
:100310000101213F20000808F80808000000202003
:100320003F2020000000000808F8080800C0808076
:10033000807F00000008F888C028180800203F20AF
:10034000012638200008F8080000000000203F20A7
:10035000202020300008F8F800F8F80800203F00BE
:100360003F003F200008F830C00008F808203F2078
:100370000007183F00E01008080810E0000F1020E8
:100380002020100F0008F808080808F000203F217E
:100390000101010000E01008080810E0000F182417
:1003A0002438504F0008F8888888887000203F2043
:1003B00000030C302000708808080838000038203E
:1003C0002121221C00180808F80808180000002045
:1003D0003F2000000008F808000008F808001F206F
:1003E0002020201F000878880000C8380800000777
:1003F000380E010000F80800F80008F800033C0778
:1004000000073C0300081868808068180820302C1A
:1004100003032C30200838C800C83808000000202A
:100420003F2000000010080808C8380800203826BF
:100430002120201800000000FE020202000000003F
:100440007F40404000000C30C00000000000000071
:10045000010638C00000020202FE00000000404019
:10046000407F0000000000040202020400000000BF
:1004700000000000000000000000000000808080FC
:1004800080808080800002020400000000000000E4
:10049000000000000000008080808000000019241F
:1004A0002222223F2008F8008080000000003F1137
:1004B0002020110E000000008080800000000E113E
:1004C0002020201100000000808088F800000E111C
:1004D0002020103F200000808080800000001F222C
:1004E0002222221300008080F088888818002020B3
:1004F0003F202000000000808080808000006B94FE
:10050000949493600008F8008080800000203F21D0
:100510000000203F2000809898000000000020206C
:100520003F20200000000000809898000000C0805C
:1005300080807F000008F8000080808000203F2439
:10054000022D302000000808F800000000002020E4
:100550003F202000008080808080808000203F201D
:10056000003F20003F8080008080800000203F21ED
:100570000000203F200000808080800000001F20BD
:100580002020201F00808000808000000080FFA1CC
:100590002020110E000000008080808000000E11DD
:1005A0002020A0FF80808080008080800020203F6D
:1005B0002120000100000080808080800000332422
:1005C0002424241900008080E080800000000000C6
:1005D0001F202000008080000000808000001F207D
:1005E0002020103F20808080000080808000010E4D
:1005F000300806010080800080008080800F300C71
:10060000030C300F000080800080808000002031CB
:100610002E0E312000808080000080808080818EBE
:1006200070180601000080808080808000002130EA
:100630002C2221300000000000807C02020000001B
:1006400000003F404000000000FF000000000000EC
:1006500000FF0000000002027C800000000040401B
:100660003F00000000000601010202040400000037
:100670000000000000000000002300260029000008
:100680000000080002010000030407000000000051
:1006900000000000000000250028002B00000000E2
:1006A00000240027002A00040404040404040402B3
:1006B00002020202020303030303030102040810FF
:1006C00020408001020408102001020408102000CC
:1006D000060E11241FBECFEFD8E0DEBFCDBF13E062
:1006E000A0E0B1E0EEE3FCE102C005900D92A83A73
:1006F000B107D9F724E0A8EAB3E001C01D92A13CFC
:10070000B207E1F713E0C9E6D3E004C02197FE0188
:100710000E94170EC836D107C9F70E94E90A0C9447
:100720001D0E0C9400002F923F924F925F926F9299
:100730007F928F929F92AF92BF92CF92DF92EF9271
:10074000FF920F931F93CF93DF93CDB7DEB72A9716
:100750000FB6F894DEBF0FBECDBF6B01442E582EEE
:100760005694569456944091AF045091B004652D20
:1007700070E0E091B304F091B40490E080E009955A
:10078000E42C81E0042C01C0880F0A94EAF78A87E0
:10079000312C612C1F8210E08091A30490E00E2C7C
:1007A00002C0880F991F0A94E2F72091AF0430919C
:1007B000B004281B390B3216130609F030F4F60189
:1007C000E10FF11D8081811139C05394A52CB12C0A
:1007D0008091B1049091B204E3E096958795EA95F3
:1007E000E1F7E0910401F0910501A816B90608F0BF
:1007F000DDC063948091A70490E00E2C02C0880FA6
:10080000991F0A94E2F76816190649F4D601A10F58
:10081000B11D8C91882309F4C9C01F83612C0995EF
:100820004091AF045091B004E091B304F091B4044E
:10083000B50190E080E009951F81312C8091A004E2
:100840009091A104F601E10FF11D20811F5F009737
:1008500009F058C0822F90E0203CA0F71092A1042C
:100860001092A004E0919E04F0919F04BE016F5F7E
:100870007F4F09950981A02EB12C2B80862D90E009
:100880000E2C02C0959587950A94E2F74A819C0147
:1008900063E0220F331F6A95E1F74217130609F050
:1008A0000CF479C0A89E9001A99E300DB89E300D21
:1008B00011248C819D81820F931F9D838C8360FA0C
:1008C000882480F8912CC401880F991F880F991FE4
:1008D00099878887011120C000E08B8190E00E2C61
:1008E00002C0880F991F0A94E2F7081719060CF442
:1008F00055C0A20CB11C0E2C01C0AA0C0A94EAF738
:100900003A0C4ACF76E0880F991F7A95E1F7807C00
:1009100097702F73822BA2CFEC81FD8174904420BD
:1009200071F0E72DF0E0088402C0F595E7950A9490
:10093000E2F790E080E0712C8430910591F48A8593
:100940008E83E091B704F091B804872D09954E810C
:100950004130F1F48C819D8101969D838C830150FF
:10096000B9CF9F01082E02C0359527950A94E2F76A
:1009700020FF0CC09C01220F331F43E001C0440F35
:100980002A95EAF7242F722A0196D6CF20E0FBCFD2
:1009900091E09E83D6CF020D0B839ECFE091B704EA
:1009A000F091B80480E009950F5F97CF0995812FEA
:1009B0002A960FB6F894DEBF0FBECDBFDF91CF9160
:1009C0001F910F91FF90EF90DF90CF90BF90AF906D
:1009D0009F908F907F906F905F904F903F902F905F
:1009E0000895CF93DF9390E0FC01E554F94F2491F3
:1009F0008955994FFC0184918823C1F090E0880FBC
:100A0000991FFC01E356F94FC591D491FC01ED56B5
:100A1000F94FA591B4919FB7F8943881822F8095B2
:100A200083238883EC91E22BEC939FBFDF91CF91DE
:100A30000895833081F028F4813099F08230A9F054
:100A400008958730A9F08830C9F08430B1F48091DE
:100A500080008F7D03C0809180008F77809380001D
:100A6000089584B58F7784BD089584B58F7DFBCFBD
:100A70008091B0008F778093B00008958091B0008E
:100A80008F7DF9CFCF93DF93282F30E0F901E15824
:100A9000F94F8491F901E554F94FD491F901E955E1
:100AA000F94FC491CC23A1F081110E941905EC2FBC
:100AB000F0E0EE0FFF1FEB58F94FA591B491EC91C8
:100AC000ED2381E090E009F480E0DF91CF9108957B
:100AD00080E090E0FACF1F93CF93DF93282F30E090
:100AE000F901E158F94F8491F901E554F94FD49196
:100AF000F901E955F94FC491CC23A9F0162F8111C2
:100B00000E941905EC2FF0E0EE0FFF1FED56F94F94
:100B1000A591B4918FB7F894EC91111108C0D095BC
:100B2000DE23DC938FBFDF91CF911F910895DE2BE1
:100B3000F8CF3FB7F89480919A0490919B04A091CC
:100B40009C04B0919D0426B5A89B05C02F3F19F0C9
:100B50000196A11DB11D3FBFBA2FA92F982F88273D
:100B6000BC01CD01620F711D811D911D42E0660F18
:100B7000771F881F991F4A95D1F708958F929F92EA
:100B8000AF92BF92CF92DF92EF92FF924B015C0146
:100B90000E9499056B017C010E9499056C197D09E1
:100BA0008E099F09683E734081059105A8F321E0F5
:100BB000821A9108A108B10888EEC80E83E0D81EF9
:100BC000E11CF11C81149104A104B10429F7FF90E8
:100BD000EF90DF90CF90BF90AF909F908F9008954F
:100BE0000895089508950895089520913304260FD7
:100BF0003327331F21323105ECF420915704FC01D7
:100C000090E080E0243069F082E00895A091330400
:100C10002191AC014D5E5B4FA40FB52FB11D2C93FC
:100C20000196861798F380913304680F609333041C
:100C300080E0089581E008951092570481E0809348
:100C400059041092580461E082E10E946B0561E052
:100C500083E10E946B05E9EBF0E080818E7F808369
:100C600080818D7F808388E48093B80085E48093C1
:100C7000BC000895CF93DF9391E0909312048823F2
:100C8000B9F0C091B800D091BA008091BC008A7BC5
:100C90008093BC0060E082E10E946B0560E083E12C
:100CA0000E946B050E941C06D093BA00C093B80046
:100CB000DF91CF9108950895E09184048091830499
:100CC000E81730F4F0E0E351FC4F808190E00895A4
:100CD0008FEF9FEF089590918404809183042FEF0C
:100CE0003FEF981748F4E92FF0E0E351FC4F2081E3
:100CF00030E09F5F90938404C9010895809183043C
:100D000090918404891B990B0895CF92DF92EF9202
:100D1000FF920F931F93CF93DF937C01CB018A0146
:100D20002091EC03222389F0EB016B01C40ED51E48
:100D3000CC15DD0569F06991D701ED91FC91019029
:100D4000F081E02DC7010995F3CF642F0E94F505CE
:100D5000C801DF91CF911F910F91FF90EF90DF902D
:100D6000CF900895CF93DF931F92CDB7DEB76983FD
:100D70002091EC032223F9F020918104203258F0D5
:100D800021E030E0FC013383228390E080E00F908B
:100D9000DF91CF91089580918204E82FF0E0E45331
:100DA000FC4F998190838F5F8093820480938104AC
:100DB00081E090E0ECCF61E0CE0101960E94F50564
:100DC000F7CFCF92DF92EF92FF920F931F93CF93C3
:100DD000DF93D0918104D13208F094C0C091CA034E
:100DE0000E9499056B017C0180915704811165C0B7
:100DF00082E08093570481E0809359048FEF8093C1
:100E0000560410927B04D0937A04ECECF3E0AAE54C
:100E1000B4E080E0D81385C010927C0480917C04FB
:100E2000CC0FC82BC0937C0480915804813009F00A
:100E30007CC0109258040E9499056B017C0180913E
:100E40007C048093BB0080910E0490910F04A091CC
:100E50001004B0911104892B8A2B8B2B99F00E94DE
:100E6000990500910E0410910F0420911004309107
:100E700011046C197D098E099F09061717072807A9
:100E80003907E0F18091BC0083FDD9CF85EC8093D8
:100E9000BC000E9499056B017C018091570482304F
:100EA00009F445C0809156048F3F61F1809156044A
:100EB000803241F18091560425C080910E049091BA
:100EC0000F04A0911004B0911104892B8A2B8B2B55
:100ED00009F48ACF0E94990500910E0410910F0425
:100EE00020911004309111046C197D098E099F091D
:100EF000061717072807390708F076CF80910D04E9
:100F00000E943A0610928204109281041092EC031F
:100F1000DF91CF911F910F91FF90EF90DF90CF90D5
:100F2000089591919D938F5F75CF85EEB0CF80919D
:100F30000E0490910F04A0911004B0911104892B1C
:100F40008A2B8B2B09F4A9CF0E94990500910E04DE
:100F500010910F0420911004309111046C197D0937
:100F60008E099F09061717072807390708F095CF3C
:100F7000C5CF8091000191E09093EC038093CA0368
:100F800010928204109281041092CB030895CF93A3
:100F9000C82F8091CB038E3138F00E94E1060E9469
:100FA000B90780E40E94C707809191049091920450
:100FB000DC01ED91FC910190F081E02D6C2F099501
:100FC0008091CB038F5F8093CB03CF9108950F93D4
:100FD0001F93CF93DF93EC018C01060F171FC017EF
:100FE000D10721F089910E94C707F9CFDF91CF91F6
:100FF0001F910F9108954091A804FC01249131960E
:10100000E491322F2E2FFC013296E491E11103C0BE
:1010100090E080E0089503966217730730F0D901DD
:10102000AE0FB11D6A177B0728F0E49F800D911D5C
:101030001124E3CF621B730B469F9001479F300D35
:101040001124820F931F08956091A9047091AA043E
:10105000282F880F330B8091A504281B310980911C
:10106000A804829FA001839F500D11248091A204A7
:10107000813039F090E080E0840F951F860F971F34
:10108000089583E090E0F8CF0F931F93CF93DF9301
:101090006115710561F1EB018C018091A3048883D6
:1010A0008091A40489831A828091A9049091AA0452
:1010B0000038110550F42091A204211106C0892B9B
:1010C00031F0802F0E94240810C0009749F48091CD
:1010D000AB049091AC04009779F48091A504F2CF11
:1010E000B8010E94FB07009791F39C838B83DF91EB
:1010F000CF911F910F910895B8010E94FB070097AF
:10110000A1F7EBCF0F931F93CF93DF93E091B3043D
:10111000F091B40450E040E070E060E090E080E0E6
:101120000995C091B104D091B20483E0D695C795DA
:101130008A95E1F7209749F4E0910401F0910501C7
:10114000DF91CF911F910F9109940091AF041091FD
:10115000B0040115110539F4E091B504F091B6041D
:1011600009952197E7CFE091B704F091B80480E0AA
:10117000099501501109EDCF90E080E008950F939B
:101180001F93CF93DF93EC018C01060F171FC0173D
:10119000D10729F4DF91CF911F910F910895E0912C
:1011A0000601F091070189910995F1CF682F85E03B
:1011B0000C946B050F931F93CF93DF93182F062F7B
:1011C000EA01E0910201F09103010995809101018A
:1011D000882309F442C080E00E94D608E09106010D
:1011E000F091070181E20995E0910601F091070174
:1011F000812F0995E0910601F09107018C2F815014
:10120000810FCD2B19F48091AF0481500995E091A5
:101210000601F091070182E20995E0910601F09143
:101220000701802F09958091B1049091B20423E0C9
:10123000969587952A95E1F7E0910601F0910701CF
:101240008150099580910101882371F081E0DF913F
:10125000CF911F910F910C94D608E0910601F09167
:10126000070180E00995BACFE0910401F0910501F2
:101270000995E0910201F09103010995E0910601C1
:10128000F091070180E4DF91CF911F910F910994B4
:1012900085ED8093BC0080910E0490910F04A09185
:1012A0001004B09111040796A11DB11D23E0B6955D
:1012B000A795979587952A95D1F72091BC0024FD95
:1012C00003C010925704089540910E0450910F04EA
:1012D0006091100470911104452B462B472B69F344
:1012E0000097A105B10541F02AE22A95F1F700C067
:1012F0000197A109B109E1CF80910D040C943A0640
:101300001F920F920FB60F9211242F933F938F933A
:101310009F93AF93BF938091960490919704A0916F
:101320009804B09199043091950423E0230F2D3750
:1013300058F50196A11DB11D209395048093960444
:1013400090939704A0939804B093990480919A0481
:1013500090919B04A0919C04B0919D040196A11DC5
:10136000B11D80939A0490939B04A0939C04B09326
:101370009D04BF91AF919F918F913F912F910F90BD
:101380000FBE0F901F90189526E8230F0296A11DFF
:10139000B11DD2CF1F920F920FB60F9211242F932F
:1013A0003F934F935F936F937F938F939F93AF93ED
:1013B000BF93EF93FF938091B900887F803609F443
:1013C0004AC0F0F5883209F4A7C018F5803109F455
:1013D0009BC0B8F4882309F4F9C0883009F494C09C
:1013E000FF91EF91BF91AF919F918F917F916F91FD
:1013F0005F914F913F912F910F900FBE0F901F90D3
:101400001895883109F488C0803251F780935604CA
:1014100014C0803409F49DC040F48033B9F388339C
:10142000F9F68093560485ECB0C0803509F485C088
:10143000883509F496C0883499F60E944809D0CFBF
:10144000883909F48CC038F5883729F050F488368B
:1014500011F0803729F683E08093570410925504E9
:1014600057C0883809F47BC0803919F0803809F0FA
:10147000B7CF80915504803208F071C0E0915504D7
:1014800081E08E0F809355048091BB00F0E0EB5C0F
:10149000FB4F80833DC0803B39F0E0F4803A09F493
:1014A00079C0883A09F09CCF84E080935704109269
:1014B000340410923304E0917F04F0918004099584
:1014C0008091330481110FC081E080933304109226
:1014D000130409C0803C09F4A6CF883C09F4A3CFCB
:1014E000883B09F07DCFE091340481E08E0F80933A
:1014F0003404F0E0ED5EFB4F80818093BB0090915F
:1015000034048091330429C080917C048093BB0013
:1015100085EC8093BC0064CF90917B0480917A0429
:10152000981758F5E0917B0481E08E0F80937B043F
:10153000F0E0E65AFB4F8081E9CFE0917B0481E047
:101540008E0F80937B048091BB00F0E0E65AFB4F46
:10155000808390917B0480917A049817C8F285E883
:10156000D8CFE0917B0481E08E0F80937B04809143
:10157000BB00F0E0E65AFB4F808380915904811153
:101580005CCF81E08093580484EA8093BC00109281
:10159000570426CF85EC8093BC00109257048091AD
:1015A0005504803230F4E0915504F0E0EB5CFB4FE1
:1015B00010826091550470E0E0917D04F0917E040A
:1015C00085E394E00995109255040ACF10925604D1
:1015D00034CF789484B5826084BD84B5816084BD45
:1015E00085B5826085BD85B5816085BD80916E00C1
:1015F000816080936E0010928100809181008260F2
:10160000809381008091810081608093810080912E
:1016100080008160809380008091B100846080931D
:10162000B1008091B00081608093B00080917A0019
:10163000846080937A0080917A00826080937A003F
:1016400080917A00816080937A0080917A0080682E
:1016500080937A001092C10082E00E94F10461E060
:1016600082E00E946B0583E00E94F10461E083E068
:101670000E946B0584E00E94F10461E084E00E9416
:101680006B0585E00E94F10461E085E00E946B0536
:1016900086E00E94F10461E086E00E946B0587E02D
:1016A0000E94F10461E087E00E946B0588E00E94DF
:1016B000F10461E088E00E946B0589E00E94F1047A
:1016C00061E089E00E946B05E1E8F0E0E491E093DD
:1016D000A204E2E8F0E024912093A304E3E8F0E020
:1016E00084918093A404E4E8F0E0E491E093A504FD
:1016F00045E850E05093AA044093A90444E458E01C
:1017000050939F0440939E0490E0079633E0959594
:1017100087953A95E1F78093A704289FE02D11243F
:10172000E093A8041092AC041092AB0485E894E016
:1017300090939204809391041092840410928304F5
:1017400010928204109281040E941C0683EF95E09F
:101750009093800480937F0484EF95E090937E04BF
:1017600080937D048CE08093B8008CE3809300012B
:101770001092010189EB97E090930301809302019D
:1017800081EE96E0909305018093040127EC37E009
:10179000309307012093060187EE97E090930901AB
:1017A0008093080142EF55E050930B0140930A01EA
:1017B0001092AE041092AD0440E450E05093B20495
:1017C0004093B10440E850E05093B0044093AF041C
:1017D0004AED58E05093B4044093B30440EF55E011
:1017E0005093B6044093B5043093B8042093B704E3
:1017F0009093BA048093B90481EF95E09093C0046C
:101800008093BF04C8E6D0E0FE011491E09102018C
:10181000F0910301099580910101882309F4EFC13A
:1018200080E00E94D608E0910601F0910701812F27
:101830000995E0910401F091050109952196F0E0E8
:10184000C138DF0709F70E94820840E06EE171E0CD
:1018500080E00E94930340E06DE271E084E10E9429
:10186000930340E06AE371E080E20E94930360E743
:1018700077E180E090E00E94BE050E94820840E08F
:101880006EE171E080E00E949303C0E0D0E001E0EF
:1018900010E0109294041092930482E00E9442059A
:1018A000892B21F4109394040093930483E00E9405
:1018B0004205892B49F480919304909194040296F7
:1018C000909394048093930484E00E944205892BB2
:1018D00049F4809193049091940404969093940415
:1018E0008093930485E00E944205892B49F48091FE
:1018F0009304909194040896909394048093930495
:1019000086E00E944205892B49F4809193049091CE
:1019100094044096909394048093930487E00E94EB
:101920004205892B49F48091930490919404809608
:10193000909394048093930488E00E944205892B3D
:1019400051F48091930490919404805C9F4F909304
:1019500094048093930489E00E944205892B51F4FA
:10196000809193049091940480589F4F9093940495
:10197000809393048091930490919404029731F49E
:1019800041E060E571E088E10E9493038091930457
:1019900090919404429731F441E06BE671E088E164
:1019A0000E9493038091930490919404439731F49F
:1019B00041E066E871E088E10E949303809193041E
:1019C00090919404039731F441E061EA71E088E179
:1019D0000E9493038091930490919404019731F4B1
:1019E00041E06CEB71E088E10E94930380919304E5
:1019F00090919404419731F441E067ED71E088E102
:101A00000E9493038091930490919404499731F438
:101A100041E062EF71E088E10E94930380919304BA
:101A200090919404099731F441E06DE072E088E10F
:101A30000E9493038091930490919404089731F449
:101A400041E068E272E088E10E9493038091930490
:101A500090919404489731F441E063E472E088E1A6
:101A60000E94930380919304909194044C9731F4D5
:101A700041E06FE572E088E10E9493038091930456
:101A8000909194040C9731F441E06BE772E088E1A7
:101A90000E9493038091930490919404049731F4ED
:101AA00041E066E972E088E10E949303809193042B
:101AB00090919404449731F441E061EB72E088E145
:101AC0000E9493038091930490919404469731F47B
:101AD00041E06DEC72E088E10E94930380919304F1
:101AE00090919404069731F441E069EE72E088E148
:101AF0000E94930380919304909194048034910503
:101B000031F441E065E073E088E10E949303809145
:101B10009304909194048438910531F441E060E29B
:101B200073E088E10E949303809193049091940460
:101B3000803A910531F441E06BE373E088E10E9463
:101B400093038091930490919404809731F441E041
:101B500066E573E088E10E9493038091930490917D
:101B600094048238910531F441E061E773E088E143
:101B70000E9493038091930490919404813891057D
:101B800031F441E06CE873E088E10E9493038091B6
:101B9000930490919404892B31F441E066E472E05F
:101BA00088E10E94930364E670E080E090E00E9488
:101BB000BE0561E082E00E946B0561E083E00E9467
:101BC0006B0561E084E00E946B0561E085E00E94A6
:101BD0006B0561E086E00E946B0561E087E00E9492
:101BE0006B0561E088E00E946B0561E089E00E947E
:101BF0006B05209709F44DCE0E9400004ACEE0917B
:101C00000601F091070180E009950DCEE5E8F4E0CA
:101C10001382128288EE93E0A0E0B0E08483958383
:101C2000A683B78380E191E0918380830895EE0FCE
:101C3000FF1F0590F491E02D0994F894FFCF3C002C
:101C4000000000000000BF08000000000000B20615
:101C50008506BC085B067E066B065C0641717561F5
:101C60005061642054657374657200446576656CD8
:101C70006F706564206279007777772E796F756D64
:101C8000616B65726F626F74732E636F6D0050319C
:101C90002020202020202020202020202020202044
:101CA0002020202020202020005032202020202012
:101CB0002020202020202020202020202020202024
:101CC00020202000503320202020202020202020F1
:101CD00020202020202020202020202020200050F4
:101CE00034202020202020202020202020202020E0
:101CF00020202020202020202000503520202020BF
:101D000020202020202020202020202020202020D3
:101D1000202020200050362020202020202020209D
:101D200020202020202020202020202020202000D3
:101D3000503720202020202020202020202020205C
:101D4000202020202020202020200050382020206B
:101D50002020202020202020202020202020202083
:101D6000202020202000503920202020202020204A
:101D70002020202020202020202020202020202063
:101D80000050313020202020202020202020202022
:101D90002020202020202020202020200050313111
:101DA0002020202020202020202020202020202033
:101DB00020202020202020200050313220202020F0
:101DC0002020202020202020202020202020202013
:101DD00020202000503133202020202020202020CF
:101DE00020202020202020202020202020200050E3
:101DF00031342020202020202020202020202020BE
:101E0000202020202020202020200050313520209C
:101E100020202020202020202020202020202020C2
:101E2000202020202020005031362020202020207B
:101E300020202020202020202020202020202020A2
:101E40002020004B31202020202020202020202076
:101E500020202020202020202020202020004B3265
:101E60002020202020202020202020202020202072
:101E70002020202020202020004B33202020202044
:101E80002020202020202020202020202020202052
:101E9000202020004B342020202020202020202023
:101EA0002020202020202020202020202020004B27
:101EB000352020202020202020202020202020200D
:101EC000202020202020202020004B3620202020F1
:101ED0002020202020202020202020202020202002
:061EE0002020202000007C
:107E0000112484B714BE81FFF0D085E080938100F7
:107E100082E08093C00088E18093C10086E0809377
:107E2000C20080E18093C4008EE0C9D0259A86E02C
:107E300020E33CEF91E0309385002093840096BBD3
:107E4000B09BFECF1D9AA8958150A9F7CC24DD24C4
:107E500088248394B5E0AB2EA1E19A2EF3E0BF2EE7
:107E6000A2D0813461F49FD0082FAFD0023811F036
:107E7000013811F484E001C083E08DD089C08234E0
:107E800011F484E103C0853419F485E0A6D080C0E4
:107E9000853579F488D0E82EFF2485D0082F10E0AE
:107EA000102F00270E291F29000F111F8ED06801E7
:107EB0006FC0863521F484E090D080E0DECF843638
:107EC00009F040C070D06FD0082F6DD080E0C81688
:107ED00080E7D80618F4F601B7BEE895C0E0D1E017
:107EE00062D089930C17E1F7F0E0CF16F0E7DF06D8
:107EF00018F0F601B7BEE89568D007B600FCFDCFD4
:107F0000A601A0E0B1E02C9130E011968C91119780
:107F100090E0982F8827822B932B1296FA010C0160
:107F200087BEE89511244E5F5F4FF1E0A038BF0790
:107F300051F7F601A7BEE89507B600FCFDCF97BE46
:107F4000E89526C08437B1F42ED02DD0F82E2BD052
:107F50003CD0F601EF2C8F010F5F1F4F84911BD097
:107F6000EA94F801C1F70894C11CD11CFA94CF0C13
:107F7000D11C0EC0853739F428D08EE10CD085E9AC
:107F80000AD08FE07ACF813511F488E018D01DD067
:107F900080E101D065CF982F8091C00085FFFCCF94
:107FA0009093C60008958091C00087FFFCCF809118
:107FB000C00084FD01C0A8958091C6000895E0E648
:107FC000F0E098E1908380830895EDDF803219F02E
:107FD00088E0F5DFFFCF84E1DECF1F93182FE3DFCA
:107FE0001150E9F7F2DF1F91089580E0E8DFEE27F6
:047FF000FF270994CA
:027FFE00040479
:00000001FF
